{
  "_format": "hh3-artifact-1",
  "contractName": "Counter",
  "sourceName": "contracts/Counter.sol",
  "abi": [
    {
      "anonymous": false,
      "inputs": [
        {
          "indexed": false,
          "internalType": "uint256",
          "name": "by",
          "type": "uint256"
        }
      ],
      "name": "Increment",
      "type": "event"
    },
    {
      "inputs": [],
      "name": "inc",
      "outputs": [],
      "stateMutability": "nonpayable",
      "type": "function"
    },
    {
      "inputs": [
        {
          "internalType": "uint256",
          "name": "by",
          "type": "uint256"
        }
      ],
      "name": "incBy",
      "outputs": [],
      "stateMutability": "nonpayable",
      "type": "function"
    },
    {
      "inputs": [],
      "name": "toggleUnlocked",
      "outputs": [],
      "stateMutability": "nonpayable",
      "type": "function"
    },
    {
      "inputs": [],
      "name": "x",
      "outputs": [
        {
          "internalType": "uint256",
          "name": "",
          "type": "uint256"
        }
      ],
      "stateMutability": "view",
      "type": "function"
    }
  ],
  "bytecode": "0x60806040526001805460ff191690553480156018575f5ffd5b506102b6806100265f395ff3fe608060405234801561000f575f5ffd5b506004361061004a575f3560e01c80630c55699c1461004e578063371303c01461006857806370119d0614610072578063a88178ec14610085575b5f5ffd5b6100565f5481565b60405190815260200160405180910390f35b61007061009c565b005b610070610080366004610224565b610134565b6100706001805460ff19811660ff90911615179055565b60015460ff166100eb5760405162461bcd60e51b815260206004820152601560248201527414dbdc9c9e4b081d1a1a5cc81a5cc81b1bd8dad959605a1b60448201526064015b60405180910390fd5b5f805490806100f98361024f565b9091555050604051600181527f51af157c2eee40f68107a47a49c32fbbeb0a3c9e5cd37aa56e88e6be92368a819060200160405180910390a1565b60015460ff1661017e5760405162461bcd60e51b815260206004820152601560248201527414dbdc9c9e4b081d1a1a5cc81a5cc81b1bd8dad959605a1b60448201526064016100e2565b5f81116101d95760405162461bcd60e51b815260206004820152602360248201527f696e6342793a20696e6372656d656e742073686f756c6420626520706f73697460448201526269766560e81b60648201526084016100e2565b805f5f8282546101e99190610267565b90915550506040518181527f51af157c2eee40f68107a47a49c32fbbeb0a3c9e5cd37aa56e88e6be92368a819060200160405180910390a150565b5f60208284031215610234575f5ffd5b5035919050565b634e487b7160e01b5f52601160045260245ffd5b5f600182016102605761026061023b565b5060010190565b8082018082111561027a5761027a61023b565b9291505056fea2646970667358221220a0e9692f8e7677af574f6b3e9a9cb19599b0267bdfa370fb5ebcc140a07e1e6064736f6c634300081c0033",
  "linkReferences": {},
  "deployedLinkReferences": {},
  "immutableReferences": {},
  "inputSourceName": "project/contracts/Counter.sol",
  "buildInfoId": "solc-0_8_28-40aa1a9a4f6f286a1edfe570c4aba2a727d1e75f"
}